:020000040800F2
:20400000FC0F0020ED510008B5510008BB5100080000000000000000000000006C2300007E
:20402000000000000000000000000000C15100080000000000000000CB510008D551000814
:204040003D520008000000003D5200083D5200083D5200083D5200083D5200083D5200083F
:20406000000000003D5200083D5200083D5200083D5200083D5200083D52000800000000B6
:204080003D5200083D520008000000003D5200083D5200083D5200083D5200083D520008FF
:2040A0003D5200083D5200083D520008294600083D5200080000000000000000000000002D
:2040C00010B5064C2378002B07D1054B002B02D0044800E000BF0123237010BDE00000206F
:2040E00000000000FC600008044B10B5002B03D00349044800E000BF10BDC0460000000040
:20410000E4000020FC600008002243088B4274D303098B425FD3030A8B4244D3030B8B42DF
:2041200028D3030C8B420DD3FF22090212BA030C8B4202D31212090265D0030B8B4219D3F4
:2041400000E0090AC30B8B4201D3CB03C01A5241830B8B4201D38B03C01A5241430B8B427D
:2041600001D34B03C01A5241030B8B4201D30B03C01A5241C30A8B4201D3CB02C01A5241DE
:20418000830A8B4201D38B02C01A5241430A8B4201D34B02C01A5241030A8B4201D30B0294
:2041A000C01A5241CDD2C3098B4201D3CB01C01A524183098B4201D38B01C01A52414309DB
:2041C0008B4201D34B01C01A524103098B4201D30B01C01A5241C3088B4201D3CB00C01A4E
:2041E000524183088B4201D38B00C01A524143088B4201D34B00C01A5241411A00D20146F0
:20420000524110467047FFE701B5002000F006F802BDC0460029F7D076E770477047C046CE
:2042200080B500AFBFF34F8FC046044B044ADA60BFF34F8FC046C046FDE7C04600ED00E0DA
:204240000400FA0590B58BB000AF80239B053B6200237B6200237B620EE07B6A9B00554A3F
:20426000944663441A007B6A9B00396ACB1812681A607B6A01337B627B6A2F2BEDD94E4B15
:20428000012252429A624C4B9A694B4B01210A439A61494B9B6901221340BB60BB68464BF4
:2042A00000229A62454B1A68444B03218A431A60424B1A68414B03210A431A6062B6C04630
:2042C00000F0BEFF00F084F800F0CAF80C243B19180014231A00002101F008FF364B9A6989
:2042E000354B8021C9010A439A61334B9A698023DB0113407B607B682F4B5A692E4B802123
:2043000089020A435A612C4B5A6980239B0213403B603B683B19C022D2001A603B19022205
:204320005A603B1901229A603B190322DA603B1901221A613A199023DB051100180001F0AD
:20434000BBF821007B18802252011A607B1802225A607B1800229A607B180322DA607B18E2
:2043600001221A617A189023DB051100180001F0A3F8E1235B0201221421180000F0A8F963
:20438000FA239B00180000F0BFFF0D4B1021180001F01FFA0B4B5B89FF2B05D10A4B0B4A10
:2043A0001A80084B00225A81064B5B89082BE7D1FFF736FF004000080010024000000140ED
:2043C00000040048FC000020FC0F002003D9FFFF90B591B000AF10243B19180030231A002E
:2043E000002101F083FE3B00180010231A00002101F07CFE21007B1801221A607B180122F7
:204400005A607B1802221A627B18802252025A627B18802212039A627B180022DA627B18A0
:20442000180001F0F1F9031E01D000F06FF83B0007221A603B0002225A603B0000229A60F2
:204440003B000022DA603B000121180001F0F6FC031E01D000F05AF8C046BD4611B090BD22
:2044600090B589B000AF0C243B19180014231A00002101F03BFE234B5A69224B802109038C
:204480000A435A611F4B5A6980231B031340BB60BB681C4B5A691B4B8021C9030A435A6190
:2044A000184B5A698023DB0313407B607B68154B5A69144B8021C9020A435A61114B5A692F
:2044C0008023DB0213403B603B680F4B00221021180001F061F921007B1810221A607B18C8
:2044E00001225A607B1800229A607B180022DA607B18054A1900100000F0DEFFC046BD4660
:2045000009B090BD001002400004004880B500AF72B6C046FEE7000080B582B000AF0200E8
:20452000FB1D1A70FB1D1B787F2B09D8FB1D1B781A001F231A40044B012191400A001A607C
:20454000C046BD4602B080BD00E100E090B583B000AF02003960FB1D1A70FB1D1B787F2BE9
:2045600028D82F4AFB1D1B785BB29B08C0339B009B58FA1D1278110003220A40D200FF21D3
:2045800091400A00D2431A4011003B689B01FF221A40FB1D1B78180003230340DB009A4025
:2045A0001F48FB1D1B785BB29B080A43C0339B001A5031E01B4AFB1D1B7819000F230B403D
:2045C000083B9B0806339B00D31804331B68FA1D1278110003220A40D200FF2191400A008E
:2045E000D2431A4011003B689B01FF221A40FB1D1B78180003230340DB009A400948FB1D37
:204600001B781C000F232340083B9B080A4306339B00C31804331A60C046BD4603B090BDBA
:2046200000E100E000ED00E080B582B000AF164BDB690822134005D0134B1A6A124B082177
:204640000A431A62104BDB692022134009D00E4B9B8C9AB2FB1D1A70FB1D1B78180000F063
:204660002DF9094BDA6980231B01134008D000F07FF9054B1A6A044B802109010A431A6294
:20468000C046BD4602B080BD0038014080B582B000AF786039600D4B1A680C4B01218A4302
:2046A0001A6072B6C046094B7A68DA60074B3A685A6062B6C046054B1A68044B01210A4386
:2046C0001A60C046BD4602B080BDC0464400024090B583B000AF786008001100BB1C021CCF
:2046E0001A807B1C0A1C1A70384B394A1A60394B394A1A607B1C1B78180000F00BFD374B1C
:204700009A69364B8021C9010A439A61334B5A69324B01210A435A61314C79683148FFF7AD
:20472000F3FC0300E3602E4B1A682D4B0C210A431A602B4B1A682A4B20210A431A60284BF5
:204740009A68274B80210A439A60254B9A68244B8021C9010A439A60214B1A68204B2249A6
:204760000A431A601E4B1A681D4B8021C9040A431A601B4B5A681A4B802109040A435A60A8
:20478000174BBA1C12885A61154B1A68144B01210A431A601B20FFF7BFFE05211B20FFF71D
:2047A000D5FE124B1A68114B802189000A431A600F4B1A680E4B90210A431A600C4B0D4A9F
:2047C0009A60C046BD4603B090BDC046CC0000208D460008B4020020FC00002000100240C5
:2047E00000380140006CDC020000FF0300000140440002402838014080B500AFC046BD469F
:2048000080BD80B582B000AF78603960C046BD4602B080BD80B582B000AF0200BB1D1A8052
:20482000C046BD4602B080BD90B587B000AF78600A00BB1C1A801723FB18FF221A701623D1
:20484000FB18FF221A7000233B611EE07A683B69D3181A7817243B191B785340DAB20E206B
:204860003B181A803B181B88124AD15C3B1916243A1912784A401A703B181A883B190E49AD
:204880008A5C1A703B6901333B61BB1C1B883A699A42DBD31623FB181B781B021AB217238B
:2048A000FB181B781BB213431BB29BB21800BD4607B090BD346100083462000880B582B054
:2048C00000AF0200FB1D1A70204B1B689847204B1B78022B18D036DC002B34D11D4B1B7868
:2048E000FA1D12789A4209D01B4B1B8801339AB2194B1A80164B01221A7024E0144B022246
:204900001A70164B164A1A60144B1A68154B1B689A420ED2114B1B68591C104A1160FA1D1C
:2049200012781A70104B1B8801339AB20E4B1A8009E00E4B1B8801339AB20C4B1A80044B4D
:2049400001221A70C046BD4602B080BDC80000209401002095010020A0020020C0000020BD
:2049600098010020C4000020A40200209C02002080B582B000AF344B1B78022B07D0324B6D
:2049800000221A70314B324A1A60002358E02F4B1A682F4BD21ABB1D1A80BB1D1B88022B22
:2049A0000DD8294B00221A70284B294A1A60294B1B8801339AB2274B1A80002340E0234B3E
:2049C0001B68013B1B781B021AB2204B1B68023B1B781BB213431AB23B1D1A80BB1D1B8882
:2049E000023B9AB21A4B11001800FFF71DFF03001A00BB1C1A80BB1C1B889BB23A1D128848
:204A00009A420DD0104B00221A70104B104A1A60114B1B8801339AB20F4B1A8000230FE022
:204A20000E4ABB1D1B88033B9BB21900100000F05FF8054B00221A70044B054A1A60012370
:204A40001800BD4602B080BD94010020C0000020980100209E020020A202002099010020C0
:204A6000B0B584B000AF0200FB1D1A70BB1D0A1C1A701B4B1A781B4B1A70FB1D1B7880228D
:204A800052421343DAB2174B5A70164BBA1D12789A700E257C19134B03211800FFF7C4FE8E
:204AA0000300238029007B181B88DAB20D4BDA707B181B881B0A9BB2DAB20A4B1A710A4B5A
:204AC0001B8801339AB2084B1A80084B1B68054A052110009847C046BD4604B0B0BDC0465C
:204AE00095010020B8020020B0020020CC000020F0B591B000AF78600A00BB1C1A8025203B
:204B00003B187A6812781A703B181B78032B00D0C7E07B6801331B789BB21B0299B27B687F
:204B200002331B789AB23E243B198A181A807B6803331B789BB21B0299B27B6804331B7861
:204B40009AB23C23FB188A181A803B191B884C2B06D93B181B7802211800FFF781FFC7E2CE
:204B60003A23FB183E22BA1812881A803823FB183C217A1812881A807B181B8802335B0008
:204B8000FE2B07DD2523FB181B7804211800FFF767FFADE2C34B1A78C34B1A70C24B252266
:204BA000BA1812785A703C217B181B88DBB2DB18DAB2BD4B9A70BD4B7B637B181B88DB180F
:204BC0009AB20E23FB1803321A801FE0B84B1A683E203B181B885B00D3181B881B0A99B245
:204BE0007B6B5A1C7A63CAB21A70B14B1A683B181B885B00D31819887B6B5A1C7A63CAB266
:204C00001A703B181A883B1801321A803C22BB181B88BA18591E1180002BD7D10C257C19AE
:204C20000E26BB191A88A04B11001800FFF7FCFD030023807B6B5A1C7A637A191288D2B237
:204C40001A707B191B881B0A9BB2DAB27B6B1A70984B1B68BA191288911C934A10009847D9
:204C60000DE0954B1B683A243A190021515E8AB2013A90B23A1910808AB210009847382044
:204C80003B1800229B5E9AB2013A91B23A181180002BE6D1894B1B8801339AB2874B1A80B4
:204CA00026E225203B181B78042B00D0C7E07B6801331B789BB21B0299B27B6802331B7811
:204CC0009AB232243B198A181A807B6803331B789BB21B0299B27B6804331B789AB23023F5
:204CE000FB188A181A803B191B884C2B06D93B181B7802211800FFF7B3FEF9E12E23FB1812
:204D00003222BA1812881A802C23FB1830217A1812881A807B181B8802335B00FE2B07DDED
:204D20002523FB181B7804211800FFF799FEDFE15C4B1A785C4B1A705B4B2522BA18127848
:204D40005A7030217B181B88DBB2DB18DAB2564B9A70564BBB627B181B88DB189AB21223E3
:204D6000FB1803321A801FE0514B1A6832203B181B885B00D3181B881B0A99B2BB6A5A1CF8
:204D8000BA62CAB21A704A4B1A683B181B885B00D3181988BB6A5A1CBA62CAB21A703B18ED
:204DA0001A883B1801321A803022BB181B88BA18591E1180002BD7D110257C191226BB19E6
:204DC0001A88394B11001800FFF72EFD03002380BB6A5A1CBA627A191288D2B21A707B1937
:204DE0001B881B0A9BB2DAB2BB6A1A70314B1B68BA191288911C2C4A100098470DE02E4B7F
:204E00001B682E243A190021515E8AB2013290B23A1910808AB2100098472C203B1800221A
:204E20009B5E9AB2013A91B23A181180002BE6D1234B1B8801339AB2214B1A8058E12520D5
:204E40003B181B78062B00D089E07B6801331B789BB21B0299B27B6802331B789AB2182470
:204E60003B198A181A801623FB1800221A803B191B884C2B06D93B181B7802211800FFF736
:204E8000EFFD35E11623FB181B8802335B00FE2B18DD2523FB181B7804211800FFF7E0FD75
:204EA00026E1C04695010020B8020020BB020020B4020020CC000020D0000020A6020020FE
:204EC000A80200208C4B1A788C4B1A708B4B2522BA1812785A707B685A78884B9A707B6886
:204EE0009A78864BDA707B68DA78844B1A717B681A79824B5A717B685A79804B9A717B6879
:204F00009A797E4BDA7114217B1806221A807C4B1B687A181288911C784A100098477B6829
:204F200003331B789BB21B0299B27B6804331B789AB2744B18687B6801331B781B027C6810
:204F4000023424781B195B00C3188A1892B21A806D4B1B8801339AB26B4B1A80C8E025207D
:204F60003B181B78102B00D0B5E07B6801331B789BB21B0299B27B6802331B789AB222240F
:204F80003B198A181A802023FB1800221A803B191B884C2B06D93B181B7802211800FFF70B
:204FA0005FFDA5E02023FB181B8802335B00FE2B07DD2523FB181B7804211800FFF750FD0C
:204FC00096E04D4B1A784D4B1A704C4B2522BA1812785A707B685A78484B9A707B689A78C4
:204FE000464BDA707B68DA78444B1A717B681A79424B5A711E257B1906221A801C26BC1909
:205000007B191A883D4B11001800FFF70DFC03002380BB191B88DAB2384B9A71BB191B88FC
:205020001B0A9BB2DAB2354BDA71354B1B687A191288911C314A100098477B6803331B78B4
:205040009BB21B0299B27B6804331B789AB21A23FB188A181A802623FB1800221A802BE0F3
:2050600026257B191B8803335B001A007B689B181B789BB21B0299B27B191B885B00073359
:205080001A007B689B181B789AB21E4B18687B6801331B781B027C68023424781C197B1952
:2050A0001B88E3185B00C3188A1892B21A807B191A887B1901321A802623FA181A23FB185A
:2050C00012881B889A42CBD3104B1B8801339AB20E4B1A800CE02523FB181B780121180094
:2050E000FFF7BEFC0A4B1B8801339AB2084B1A80BD4611B0F0BDC04695010020B802002094
:20510000CC000020B4020020AA020020AC020020AE02002080B582B000AF0200FB1D1A70A9
:205120000B4BFA1D12781A700A4B00221A700A4B0A4A1A600A4B00221A800A4B00221A80A8
:20514000094B00221A80C046BD4602B080BDC0469501002094010020C0000020980100203D
:205160009C0200209E020020A202002080B582B000AF0F4B9A690E4B01210A439A610C4B60
:205180009B69012213407B607B68094BDA69084B802149050A43DA61054BDA6980235B05E0
:2051A00013403B603B68C046BD4602B080BDC0460010024080B500AFFEE780B500AFFEE77C
:2051C00080B500AFC046BD4680BD80B500AFC046BD4680BD80B500AF00F07AF8C046BD462C
:2051E00080BD80B500AFC046BD4680BD0D4885460D480E490E4A002302E0D458C4500433A8
:20520000C4188C42F9D30B4A0B4C002301E013600432A242FBD3FFF7E4FF00F043FFFFF70C
:2052200011F8FEE7FC0F0020C0000020E00000204C630008E0000020BC030020FEE70000FA
:2052400080B500AF074B1A68064B10210A431A60032000F009F8FFF789FF00231800BD467D
:2052600080BDC0460020024090B583B000AF7860144B1C68144B1B781900FA239800FEF7F2
:2052800043FF030019002000FEF73EFF0300180000F005F9031E01D001230FE07B68032B3F
:2052A0000BD8796801235B420022180000F0E2F8064B7A681A60002300E001231800BD4676
:2052C00003B090BDD4000020DC000020D800002080B500AF054B1B781A00054B1B68D21848
:2052E000034B1A60C046BD4680BDC046DC000020B803002080B500AF024B1B681800BD46F4
:2053000080BDC046B803002080B584B000AF7860FFF7F0FF0300BB607B68FB60FB680133A7
:2053200005D00A4B1B781A00FB689B18FB60C046FFF7E0FF0200BB68D31AFA689A42F7D82B
:20534000C046C046BD4604B080BDC046DC00002090B583B000AF02003960FB1D1A70FB1DCF
:205360001B787F2B28D82F4AFB1D1B785BB29B08C0339B009B58FA1D1278110003220A407A
:20538000D200FF2191400A00D2431A4011003B689B01FF221A40FB1D1B78180003230340DA
:2053A000DB009A401F48FB1D1B785BB29B080A43C0339B001A5031E01B4AFB1D1B781900F7
:2053C0000F230B40083B9B0806339B00D31804331B68FA1D1278110003220A40D200FF21DE
:2053E00091400A00D2431A4011003B689B01FF221A40FB1D1B78180003230340DB009A40B7
:205400000948FB1D1B781C000F232340083B9B080A4306339B00C31804331A60C046BD4643
:2054200003B090BD00E100E000ED00E080B582B000AF78607B685A1E80235B049A4201D3E3
:20544000012310E00A4B7A68013A5A6001235B4203211800FFF77CFF054B00229A60044BE3
:2054600007221A6000231800BD4602B080BDC04610E000E080B584B000AFB9607A600F214B
:205480007B18021C1A70BA687B181B785BB211001800FFF75DFFC046BD4604B080BD80B5D2
:2054A00082B000AF78607B681800FFF7BFFF03001800BD4602B080BD80B586B000AF786085
:2054C000396000237B614FE13B681B6801217A6991400A001340FB60FB68002B00D140E1D0
:2054E0003B685B6803221340012B05D03B685B6803221340022B30D17B689B683B617B695B
:205500005B0003229A401300DA433B6913403B613B68DA687B695B009A4013003A69134364
:205520003B617B683A699A607B685B683B6101227B699A401300DA433B6913403B613B68C6
:205540005B681B0901221A407B699A4013003A6913433B617B683A695A603B685B680322B6
:205560001340032B17D07B68DB683B617B695B0003229A401300DA433B6913403B613B685D
:205580009A687B695B009A4013003A6913433B617B683A69DA603B685B6803221340022B7D
:2055A00023D17B69DA087B6808329200D3583B617B69072213409B000F229A401300DA4385
:2055C0003B6913403B613B681A697B6907210B409B009A4013003A6913433B617B69DA08D8
:2055E0007B68083292003969D1507B681B683B617B695B0003229A401300DA433B691340D2
:205600003B613B685B6803221A407B695B009A4013003A6913433B617B683A691A603B68A5
:205620005A68C0239B02134000D19AE0544B9A69534B01210A439A61514B9B6901221340CA
:20564000BB60BB684F4A7B699B0802339B009B583B617B69032213409B000F229A40130078
:20566000DA433B6913403B617A689023DB059A4213D07B68444A93420DD07B68434A9342DE
:2056800007D07B68424A934201D1032306E0052304E0022302E0012300E000237A690321D0
:2056A0000A40920093403A6913433B6135497B699B0802339B003A695A50364B1B683B61E4
:2056C000FB68DA433B6913403B613B685A6880235B02134003D03A69FB6813433B612D4BBC
:2056E0003A691A602B4B5B683B61FB68DA433B6913403B613B685A6880239B02134003D0DA
:205700003A69FB6813433B61224B3A695A60214B9B683B61FB68DA433B6913403B613B6806
:205720005A6880235B03134003D03A69FB6813433B61184B3A699A60164BDB683B61FB68E5
:20574000DA433B6913403B613B685A6880239B03134003D03A69FB6813433B610D4B3A69DA
:20576000DA607B6901337B613B681A687B69DA40131E00D0A8E6C046C046BD4606B080BD47
:2057800000100240000001400004004800080048000C00480004014080B582B000AF786053
:2057A00008001100BB1C021C1A807B1C0A1C1A707B1C1B78002B04D0BB1C1A887B689A617A
:2057C00003E0BB1C1A887B689A62C046BD4602B080BD80B584B000AF78600A00BB1C1A802B
:2057E0007B685B69FB60BB1C1B88FA6813401A04FB68DB43B91C09880B401A437B689A61ED
:20580000C046BD4604B080BD80B588B000AF78607B68002B01D1012301E37B681B68012229
:20582000134000D18DE0C34B5B680C221340042B0ED0C04B5B680C221340082B16D1BD4B07
:205840005A6880235B021A4080235B029A420DD1B84B1A6880239B02134000D170E07B6856
:205860005B68002B00D06BE00123D8E27B685B68012B07D1AF4B1A68AE4B802149020A43E9
:205880001A602FE07B685B68002B0CD1A94B1A68A84BA9490A401A60A64B1A68A54BA7495F
:2058A0000A401A601EE07B685B68052B0ED1A14B1A68A04B8021C9020A431A609D4B1A687B
:2058C0009C4B802149020A431A600BE0994B1A68984B99490A401A60964B1A68954B974931
:2058E0000A401A607B685B68002B14D0FFF702FD0300BB6108E0FFF7FDFC0200BB69D31A31
:20590000642B01D903238AE28A4B1A6880239B021340F0D015E0FFF7EDFC0300BB6108E007
:20592000FFF7E8FC0200BB69D31A642B01D9032375E2804B1A6880239B021340F0D100E013
:20594000C0467B681B680222134000D169E0794B5B680C2213400BD0764B5B680C22134062
:20596000082B1CD1734B5A6880235B02134016D1704B1B680222134005D07B68DB68012B71
:2059800001D001234BE26B4B1B68F822934319007B681B69DA00674B0A431A6041E07B68E5
:2059A000DB68002B24D0634B1A68624B01210A431A60FFF79FFC0300BB6108E0FFF79AFC9B
:2059C0000200BB69D31A022B01D9032327E2594B1B6802221340F1D0564B1B68F82293430B
:2059E00019007B681B69DA00524B0A431A6018E0504B1A684F4B01218A431A60FFF77AFC65
:205A00000300BB6108E0FFF775FC0200BB69D31A022B01D9032302E2464B1B680222134069
:205A2000F1D17B681B680822134036D07B68DB69002B19D03F4B5A6A3E4B01210A435A627E
:205A4000FFF758FC0300BB6108E0FFF753FC0200BB69D31A022B01D90323E0E1354B5B6A6A
:205A600002221340F1D018E0324B5A6A314B01218A435A62FFF73EFC0300BB6108E0FFF761
:205A800039FC0200BB69D31A022B01D90323C6E1284B5B6A02221340F1D17B681B680422ED
:205AA000134000D1B4E01F203B1800221A70214BDA6980235B05134010D11E4BDA691D4BF6
:205AC000802149050A43DA611A4BDA6980235B051340FB60FB683B1801221A70184B1A68AE
:205AE00080235B0013401AD1154B1A68144B802149000A431A60FFF7FDFB0300BB6108E083
:205B0000FFF7F8FB0200BB69D31A642B01D9032385E10B4B1A6880235B001340F0D07B68C8
:205B20009B68012B0ED1034B1A6A024B01210A431A6235E000100240FFFFFEFFFFFFFBFFF3
:205B4000007000407B689B68002B0CD1B64B1A6AB54B01218A431A62B34B1A6AB24B042113
:205B60008A431A621CE07B689B68052B0CD1AE4B1A6AAD4B04210A431A62AB4B1A6AAA4B1B
:205B800001210A431A620BE0A74B1A6AA64B01218A431A62A44B1A6AA34B04218A431A628E
:205BA0007B689B68002B14D0FFF7A4FB0300BB6109E0FFF79FFB0200BB69D31A9B4A9342F6
:205BC00001D903232BE1984B1B6A02221340F0D013E0FFF78FFB0300BB6109E0FFF78AFB24
:205BE0000200BB69D31A914A934201D9032316E18D4B1B6A02221340F0D11F23FB181B786E
:205C0000012B05D1884BDA69874B89490A40DA617B681B681022134063D07B685B69012B52
:205C20002AD1814B5A6B804B04210A435A637E4B5A6B7D4B01210A435A63FFF75BFB03000D
:205C4000BB6108E0FFF756FB0200BB69D31A022B01D90323E3E0744B5B6B02221340F1D039
:205C6000714B5B6BF822934319007B689B69DA006D4B0A435A6334E07B685B69053311D141
:205C8000694B5A6B684B04218A435A63664B5B6BF822934319007B689B69DA00624B0A43EE
:205CA0005A631EE0604B5A6B5F4B04210A435A635D4B5A6B5C4B01218A435A63FFF71AFB15
:205CC0000300BB6108E0FFF715FB0200BB69D31A022B01D90323A2E0534B5B6B022213401A
:205CE000F1D17B681B6A002B00D197E04E4B5B680C221340082B00D16BE07B681B6A022B46
:205D00004CD1494B1A68484B4A490A401A60FFF7F1FA0300BB6108E0FFF7ECFA0200BB697C
:205D2000D31A022B01D9032379E03F4B1A6880239B041340F0D13C4BDB6A0F2293431900A2
:205D40007B68DA6A384B0A43DA62374B5B683A4A134019007B689A6A7B685B6A1A43324B72
:205D60000A435A60304B1A682F4B802149040A431A60FFF7BFFA0300BB6108E0FFF7BAFA90
:205D80000200BB69D31A022B01D9032347E0264B1A6880239B041340F0D03FE0224B1A6846
:205DA000214B24490A401A60FFF7A4FA0300BB6108E0FFF79FFA0200BB69D31A022B01D902
:205DC00003232CE0184B1A6880239B041340F0D124E07B681B6A012B01D101231FE0124B6C
:205DE0005B687B61104BDB6A3B617A6980235B021A407B685B6A9A420ED13B690F221A40F9
:205E00007B68DB6A9A4207D17A69F0239B031A407B689B6A9A4201D0012300E000231800E4
:205E2000BD4608B080BDC0460010024088130000FFFFFFEFFFFFFFFEFFFFC2FF80B584B068
:205E400000AF786039607B68002B01D10123B3E05B4B1B68012213403A689A4211D9584BE1
:205E60001B68012293431900554B3A680A431A60534B1B68012213403A689A4201D001237A
:205E80009AE07B681B680222134015D07B681B680422134006D04B4B5A684A4BE021C9005A
:205EA0000A435A60474B5B68F022934319007B689A68444B0A435A607B681B68012213402E
:205EC00040D07B685B68012B07D13E4B1A6880239B02134014D101236EE07B685B68022B40
:205EE00007D1384B1A6880239B04134008D1012362E0344B1B680222134001D101235BE047
:205F0000304B5B680322934319007B685A682D4B0A435A60FFF7EEF90300FB6009E0FFF7F1
:205F2000E9F90200FB68D31A274A934201D9032342E0244B5B680C221A407B685B689B00CA
:205F40009A42ECD11E4B1B68012213403A689A4211D21B4B1B68012293431900184B3A68E5
:205F60000A431A60164B1B68012213403A689A4201D0012320E07B681B680422134009D0D5
:205F8000104B5B68114A134019007B68DA680D4B0A435A6000F020F801000A4B5B681B0953
:205FA0000F2213400A4AD35C0A00DA40094B1A600320FFF759F900231800BD4604B080BD4E
:205FC000002002400010024088130000FFF8FFFF34630008D400002090B58FB000AF142380
:205FE000FB182B4A13CA13C312681A603B1D294A13CA13C312681A600023FB620023BB6240
:2060000000237B6300237B6200233B63224B5B68FB62FB6A0C221340042B02D0082B03D044
:206020002DE01E4B3B632DE0FB6A9B0C0F2213401422BA18D35C7B62174BDB6A0F22134070
:206040003A1DD35CBB62FA6A80235B02134009D0B96A1248FEF758F803001A007B6A5343B3
:206060007B6309E0796A0A005201521A93019B1ADB005B181B027B637B6B3B6302E0084B62
:206080003B63C0463B6B1800BD460FB090BDC046146100082461000800100240001BB7005B
:2060A00000127A0070B500260C4D0D4C641BA410A64209D1002600F021F80A4D0A4C641B07
:2060C000A410A64205D170BDB300EB5898470136EEE7B300EB5898470136F2E744630008AC
:2060E00044630008446300084863000803008218934200D1704719700133F9E7F8B5C04645
:20610000F8BC08BC9E467047F8B5C046F8BC08BC9E46704702030405060708090A0B0C0D4C
:206120000E0F10100102030405060708090A0B0C0D0E0F1000C1814001C0804101C0804114
:2061400000C1814001C0804100C1814000C1814001C0804101C0804100C1814000C181402F
:2061600001C0804100C1814001C0804101C0804100C1814001C0804100C1814000C181400F
:2061800001C0804100C1814001C0804101C0804100C1814000C1814001C0804101C08041EF
:2061A00000C1814001C0804100C1814000C1814001C0804101C0804100C1814000C18140CF
:2061C00001C0804100C1814001C0804101C0804100C1814000C1814001C0804101C08041AF
:2061E00000C1814001C0804100C1814000C1814001C0804100C1814001C0804101C080418F
:2062000000C1814001C0804100C1814000C1814001C0804101C0804100C1814000C181406E
:2062200001C0804100C1814001C0804101C0804100C1814000C0C101C30302C2C60607C72E
:2062400005C5C404CC0C0DCD0FCFCE0E0ACACB0BC90908C8D81819D91BDBDA1A1EDEDF1F2E
:20626000DD1D1CDC14D4D515D71716D6D21213D311D1D010F03031F133F3F23236F6F7370E
:20628000F53534F43CFCFD3DFF3F3EFEFA3A3BFB39F9F83828E8E929EB2B2AEAEE2E2FEF6E
:2062A0002DEDEC2CE42425E527E7E62622E2E323E12120E0A06061A163A3A26266A6A7674E
:2062C000A56564A46CACAD6DAF6F6EAEAA6A6BAB69A9A86878B8B979BB7B7ABABE7E7FBFAE
:2062E0007DBDBC7CB47475B577B7B67672B2B373B17170B05090915193535292965657978E
:20630000559594549C5C5D9D5F9F9E5E5A9A9B5B99595898884849894B8B8A4A4E8E8F4FED
:206320008D4D4C8C4484854587474686824243834181804000000000000000000102030469
:2063400006070809E9400008C1400008980100209C020020F947000803480008154800086E
:1063600000127A000400000001000000DA37967F76
:04000005080051EDB1
:00000001FF
